{
  "_format": "hh-sol-artifact-1",
  "contractName": "PaymentHandler",
  "sourceName": "contracts/PaymentHandler.sol",
  "abi": [
    {
      "inputs": [],
      "stateMutability": "nonpayable",
      "type": "constructor"
    },
    {
      "anonymous": false,
      "inputs": [
        {
          "indexed": true,
          "internalType": "address",
          "name": "sender",
          "type": "address"
        },
        {
          "indexed": false,
          "internalType": "uint256",
          "name": "amount",
          "type": "uint256"
        },
        {
          "indexed": false,
          "internalType": "string",
          "name": "promptId",
          "type": "string"
        },
        {
          "indexed": false,
          "internalType": "uint256",
          "name": "timestamp",
          "type": "uint256"
        }
      ],
      "name": "PaymentReceived",
      "type": "event"
    },
    {
      "inputs": [
        {
          "internalType": "string",
          "name": "promptId",
          "type": "string"
        }
      ],
      "name": "makePayment",
      "outputs": [],
      "stateMutability": "payable",
      "type": "function"
    },
    {
      "inputs": [],
      "name": "owner",
      "outputs": [
        {
          "internalType": "address",
          "name": "",
          "type": "address"
        }
      ],
      "stateMutability": "view",
      "type": "function"
    },
    {
      "inputs": [],
      "name": "withdraw",
      "outputs": [],
      "stateMutability": "nonpayable",
      "type": "function"
    }
  ],
  "bytecode": "0x608060405234801561001057600080fd5b50336000806101000a81548173ffffffffffffffffffffffffffffffffffffffff021916908373ffffffffffffffffffffffffffffffffffffffff16021790555061076c806100606000396000f3fe6080604052600436106100345760003560e01c80633ccfd60b146100395780638da5cb5b14610050578063f9e823e61461007b575b600080fd5b34801561004557600080fd5b5061004e610097565b005b34801561005c57600080fd5b506100656101f5565b60405161007291906102f2565b60405180910390f35b61009560048036038101906100909190610467565b610219565b005b60008054906101000a900473ffffffffffffffffffffffffffffffffffffffff1673ffffffffffffffffffffffffffffffffffffffff163373ffffffffffffffffffffffffffffffffffffffff1614610125576040517f08c379a000000000000000000000000000000000000000000000000000000000815260040161011c9061050d565b60405180910390fd5b60008060009054906101000a900473ffffffffffffffffffffffffffffffffffffffff1673ffffffffffffffffffffffffffffffffffffffff164760405161016c9061055e565b60006040518083038185875af1925050503d80600081146101a9576040519150601f19603f3d011682016040523d82523d6000602084013e6101ae565b606091505b50509050806101f2576040517f08c379a00000000000000000000000000000000000000000000000000000000081526004016101e9906105bf565b60405180910390fd5b50565b60008054906101000a900473ffffffffffffffffffffffffffffffffffffffff1681565b6000341161025c576040517f08c379a000000000000000000000000000000000000000000000000000000000815260040161025390610651565b60405180910390fd5b3373ffffffffffffffffffffffffffffffffffffffff167f5ff25fcf87b113b44b5102433bd818b0feec4af7a5474679a61e546255ccba413483426040516102a6939291906106f8565b60405180910390a250565b600073ffffffffffffffffffffffffffffffffffffffff82169050919050565b60006102dc826102b1565b9050919050565b6102ec816102d1565b82525050565b600060208201905061030760008301846102e3565b92915050565b6000604051905090565b600080fd5b600080fd5b600080fd5b600080fd5b6000601f19601f8301169050919050565b7f4e487b7100000000000000000000000000000000000000000000000000000000600052604160045260246000fd5b6103748261032b565b810181811067ffffffffffffffff821117156103935761039261033c565b5b80604052505050565b60006103a661030d565b90506103b2828261036b565b919050565b600067ffffffffffffffff8211156103d2576103d161033c565b5b6103db8261032b565b9050602081019050919050565b82818337600083830152505050565b600061040a610405846103b7565b61039c565b90508281526020810184848401111561042657610425610326565b5b6104318482856103e8565b509392505050565b600082601f83011261044e5761044d610321565b5b813561045e8482602086016103f7565b91505092915050565b60006020828403121561047d5761047c610317565b5b600082013567ffffffffffffffff81111561049b5761049a61031c565b5b6104a784828501610439565b91505092915050565b600082825260208201905092915050565b7f4f6e6c79206f776e65722063616e207769746864726177000000000000000000600082015250565b60006104f76017836104b0565b9150610502826104c1565b602082019050919050565b60006020820190508181036000830152610526816104ea565b9050919050565b600081905092915050565b50565b600061054860008361052d565b915061055382610538565b600082019050919050565b60006105698261053b565b9150819050919050565b7f5769746864726177616c206661696c6564000000000000000000000000000000600082015250565b60006105a96011836104b0565b91506105b482610573565b602082019050919050565b600060208201905081810360008301526105d88161059c565b9050919050565b7f5061796d656e7420616d6f756e74206d7573742062652067726561746572207460008201527f68616e2030000000000000000000000000000000000000000000000000000000602082015250565b600061063b6025836104b0565b9150610646826105df565b604082019050919050565b6000602082019050818103600083015261066a8161062e565b9050919050565b6000819050919050565b61068481610671565b82525050565b600081519050919050565b60005b838110156106b3578082015181840152602081019050610698565b60008484015250505050565b60006106ca8261068a565b6106d481856104b0565b93506106e4818560208601610695565b6106ed8161032b565b840191505092915050565b600060608201905061070d600083018661067b565b818103602083015261071f81856106bf565b905061072e604083018461067b565b94935050505056fea264697066735822122020a7da7ffe986d98e93bf5dd1fbef7df69b454a64cd271758be9c4684e577ca264736f6c63430008110033",
  "linkReferences": {},
  "deployedLinkReferences": {}
}