{
  "_format": "hh-sol-artifact-1",
  "contractName": "AIMarketplace",
  "sourceName": "contracts/AIMarketplace.sol",
  "abi": [
    {
      "inputs": [],
      "stateMutability": "nonpayable",
      "type": "constructor"
    },
    {
      "anonymous": false,
      "inputs": [
        {
          "indexed": true,
          "internalType": "address",
          "name": "sender",
          "type": "address"
        },
        {
          "indexed": false,
          "internalType": "string",
          "name": "serviceId",
          "type": "string"
        },
        {
          "indexed": false,
          "internalType": "string",
          "name": "requestId",
          "type": "string"
        },
        {
          "indexed": false,
          "internalType": "uint256",
          "name": "amount",
          "type": "uint256"
        },
        {
          "indexed": false,
          "internalType": "uint256",
          "name": "providerAmount",
          "type": "uint256"
        },
        {
          "indexed": false,
          "internalType": "uint256",
          "name": "platformFee",
          "type": "uint256"
        },
        {
          "indexed": false,
          "internalType": "uint256",
          "name": "timestamp",
          "type": "uint256"
        }
      ],
      "name": "PaymentReceived",
      "type": "event"
    },
    {
      "anonymous": false,
      "inputs": [
        {
          "indexed": true,
          "internalType": "address",
          "name": "provider",
          "type": "address"
        },
        {
          "indexed": false,
          "internalType": "uint256",
          "name": "amount",
          "type": "uint256"
        }
      ],
      "name": "PaymentWithdrawn",
      "type": "event"
    },
    {
      "anonymous": false,
      "inputs": [
        {
          "indexed": false,
          "internalType": "uint256",
          "name": "amount",
          "type": "uint256"
        }
      ],
      "name": "PlatformFeesWithdrawn",
      "type": "event"
    },
    {
      "anonymous": false,
      "inputs": [
        {
          "indexed": false,
          "internalType": "string",
          "name": "serviceId",
          "type": "string"
        }
      ],
      "name": "ServiceDeactivated",
      "type": "event"
    },
    {
      "anonymous": false,
      "inputs": [
        {
          "indexed": false,
          "internalType": "string",
          "name": "serviceId",
          "type": "string"
        },
        {
          "indexed": false,
          "internalType": "address",
          "name": "provider",
          "type": "address"
        },
        {
          "indexed": false,
          "internalType": "uint256",
          "name": "feePercent",
          "type": "uint256"
        }
      ],
      "name": "ServiceRegistered",
      "type": "event"
    },
    {
      "anonymous": false,
      "inputs": [
        {
          "indexed": false,
          "internalType": "string",
          "name": "serviceId",
          "type": "string"
        },
        {
          "indexed": false,
          "internalType": "address",
          "name": "provider",
          "type": "address"
        },
        {
          "indexed": false,
          "internalType": "uint256",
          "name": "feePercent",
          "type": "uint256"
        }
      ],
      "name": "ServiceUpdated",
      "type": "event"
    },
    {
      "inputs": [
        {
          "internalType": "string",
          "name": "serviceId",
          "type": "string"
        }
      ],
      "name": "deactivateService",
      "outputs": [],
      "stateMutability": "nonpayable",
      "type": "function"
    },
    {
      "inputs": [
        {
          "internalType": "address",
          "name": "",
          "type": "address"
        }
      ],
      "name": "earnings",
      "outputs": [
        {
          "internalType": "uint256",
          "name": "",
          "type": "uint256"
        }
      ],
      "stateMutability": "view",
      "type": "function"
    },
    {
      "inputs": [
        {
          "internalType": "address",
          "name": "provider",
          "type": "address"
        }
      ],
      "name": "getEarnings",
      "outputs": [
        {
          "internalType": "uint256",
          "name": "",
          "type": "uint256"
        }
      ],
      "stateMutability": "view",
      "type": "function"
    },
    {
      "inputs": [
        {
          "internalType": "string",
          "name": "serviceId",
          "type": "string"
        }
      ],
      "name": "getServiceDetails",
      "outputs": [
        {
          "internalType": "address",
          "name": "provider",
          "type": "address"
        },
        {
          "internalType": "uint256",
          "name": "feePercent",
          "type": "uint256"
        },
        {
          "internalType": "bool",
          "name": "active",
          "type": "bool"
        }
      ],
      "stateMutability": "view",
      "type": "function"
    },
    {
      "inputs": [
        {
          "internalType": "string",
          "name": "serviceId",
          "type": "string"
        },
        {
          "internalType": "string",
          "name": "requestId",
          "type": "string"
        }
      ],
      "name": "makePayment",
      "outputs": [],
      "stateMutability": "payable",
      "type": "function"
    },
    {
      "inputs": [],
      "name": "owner",
      "outputs": [
        {
          "internalType": "address",
          "name": "",
          "type": "address"
        }
      ],
      "stateMutability": "view",
      "type": "function"
    },
    {
      "inputs": [],
      "name": "platformEarnings",
      "outputs": [
        {
          "internalType": "uint256",
          "name": "",
          "type": "uint256"
        }
      ],
      "stateMutability": "view",
      "type": "function"
    },
    {
      "inputs": [
        {
          "internalType": "string",
          "name": "serviceId",
          "type": "string"
        },
        {
          "internalType": "address",
          "name": "provider",
          "type": "address"
        },
        {
          "internalType": "uint256",
          "name": "feePercent",
          "type": "uint256"
        }
      ],
      "name": "registerService",
      "outputs": [],
      "stateMutability": "nonpayable",
      "type": "function"
    },
    {
      "inputs": [
        {
          "internalType": "string",
          "name": "",
          "type": "string"
        }
      ],
      "name": "services",
      "outputs": [
        {
          "internalType": "string",
          "name": "id",
          "type": "string"
        },
        {
          "internalType": "address",
          "name": "provider",
          "type": "address"
        },
        {
          "internalType": "uint256",
          "name": "feePercent",
          "type": "uint256"
        },
        {
          "internalType": "bool",
          "name": "active",
          "type": "bool"
        }
      ],
      "stateMutability": "view",
      "type": "function"
    },
    {
      "inputs": [
        {
          "internalType": "string",
          "name": "serviceId",
          "type": "string"
        },
        {
          "internalType": "address",
          "name": "provider",
          "type": "address"
        },
        {
          "internalType": "uint256",
          "name": "feePercent",
          "type": "uint256"
        }
      ],
      "name": "updateService",
      "outputs": [],
      "stateMutability": "nonpayable",
      "type": "function"
    },
    {
      "inputs": [],
      "name": "withdrawEarnings",
      "outputs": [],
      "stateMutability": "nonpayable",
      "type": "function"
    },
    {
      "inputs": [],
      "name": "withdrawPlatformFees",
      "outputs": [],
      "stateMutability": "nonpayable",
      "type": "function"
    }
  ],
  "bytecode": "0x608060405234801561001057600080fd5b50336000806101000a81548173ffffffffffffffffffffffffffffffffffffffff021916908373ffffffffffffffffffffffffffffffffffffffff16021790555061220c806100606000396000f3fe6080604052600436106100a75760003560e01c8063956a9e1511610064578063956a9e15146101f9578063b73c6ce914610222578063ba9b92f814610239578063be820aa214610255578063c494d89d14610280578063d0b7830b146102a9576100a7565b8063026b4d21146100ac578063131b9c04146100eb5780633017ba09146101285780634ab30dcf14610168578063543fd313146101915780638da5cb5b146101ce575b600080fd5b3480156100b857600080fd5b506100d360048036038101906100ce91906114dd565b6102c0565b6040516100e29392919061159b565b60405180910390f35b3480156100f757600080fd5b50610112600480360381019061010d91906115fe565b61048e565b60405161011f919061162b565b60405180910390f35b34801561013457600080fd5b5061014f600480360381019061014a91906114dd565b6104d7565b60405161015f94939291906116c5565b60405180910390f35b34801561017457600080fd5b5061018f600480360381019061018a919061173d565b6105d2565b005b34801561019d57600080fd5b506101b860048036038101906101b391906115fe565b610876565b6040516101c5919061162b565b60405180910390f35b3480156101da57600080fd5b506101e361088e565b6040516101f091906117ac565b60405180910390f35b34801561020557600080fd5b50610220600480360381019061021b91906114dd565b6108b2565b005b34801561022e57600080fd5b50610237610a64565b005b610253600480360381019061024e91906117c7565b610c2e565b005b34801561026157600080fd5b5061026a610f64565b604051610277919061162b565b60405180910390f35b34801561028c57600080fd5b506102a760048036038101906102a2919061173d565b610f6a565b005b3480156102b557600080fd5b506102be61119b565b005b6000806000806001856040516102d6919061187b565b90815260200160405180910390206040518060800160405290816000820180546102ff906118c1565b80601f016020809104026020016040519081016040528092919081815260200182805461032b906118c1565b80156103785780601f1061034d57610100808354040283529160200191610378565b820191906000526020600020905b81548152906001019060200180831161035b57829003601f168201915b505050505081526020016001820160009054906101000a900473ffffffffffffffffffffffffffffffffffffffff1673ffffffffffffffffffffffffffffffffffffffff1673ffffffffffffffffffffffffffffffffffffffff168152602001600282015481526020016003820160009054906101000a900460ff1615151515815250509050600073ffffffffffffffffffffffffffffffffffffffff16816020015173ffffffffffffffffffffffffffffffffffffffff1603610471576040517f08c379a00000000000000000000000000000000000000000000000000000000081526004016104689061193e565b60405180910390fd5b806020015181604001518260600151935093509350509193909250565b6000600260008373ffffffffffffffffffffffffffffffffffffffff1673ffffffffffffffffffffffffffffffffffffffff168152602001908152602001600020549050919050565b600181805160208101820180518482526020830160208501208183528095505050505050600091509050806000018054610510906118c1565b80601f016020809104026020016040519081016040528092919081815260200182805461053c906118c1565b80156105895780601f1061055e57610100808354040283529160200191610589565b820191906000526020600020905b81548152906001019060200180831161056c57829003601f168201915b5050505050908060010160009054906101000a900473ffffffffffffffffffffffffffffffffffffffff16908060020154908060030160009054906101000a900460ff16905084565b60008054906101000a900473ffffffffffffffffffffffffffffffffffffffff1673ffffffffffffffffffffffffffffffffffffffff163373ffffffffffffffffffffffffffffffffffffffff1614610660576040517f08c379a0000000000000000000000000000000000000000000000000000000008152600401610657906119d0565b60405180910390fd5b60648111156106a4576040517f08c379a000000000000000000000000000000000000000000000000000000000815260040161069b90611a3c565b60405180910390fd5b600073ffffffffffffffffffffffffffffffffffffffff166001846040516106cc919061187b565b908152602001604051809103902060010160009054906101000a900473ffffffffffffffffffffffffffffffffffffffff1673ffffffffffffffffffffffffffffffffffffffff1614610754576040517f08c379a000000000000000000000000000000000000000000000000000000000815260040161074b90611aa8565b60405180910390fd5b60405180608001604052808481526020018373ffffffffffffffffffffffffffffffffffffffff1681526020018281526020016001151581525060018460405161079e919061187b565b908152602001604051809103902060008201518160000190816107c19190611c74565b5060208201518160010160006101000a81548173ffffffffffffffffffffffffffffffffffffffff021916908373ffffffffffffffffffffffffffffffffffffffff1602179055506040820151816002015560608201518160030160006101000a81548160ff0219169083151502179055509050507fa5f72f648afd063c01ce093613b41a2471e8b5b6768667c716b2f172c84a12fa83838360405161086993929190611d46565b60405180910390a1505050565b60026020528060005260406000206000915090505481565b60008054906101000a900473ffffffffffffffffffffffffffffffffffffffff1681565b60008054906101000a900473ffffffffffffffffffffffffffffffffffffffff1673ffffffffffffffffffffffffffffffffffffffff163373ffffffffffffffffffffffffffffffffffffffff1614610940576040517f08c379a0000000000000000000000000000000000000000000000000000000008152600401610937906119d0565b60405180910390fd5b600073ffffffffffffffffffffffffffffffffffffffff16600182604051610968919061187b565b908152602001604051809103902060010160009054906101000a900473ffffffffffffffffffffffffffffffffffffffff1673ffffffffffffffffffffffffffffffffffffffff16036109f0576040517f08c379a00000000000000000000000000000000000000000000000000000000081526004016109e79061193e565b60405180910390fd5b6000600182604051610a02919061187b565b908152602001604051809103902060030160006101000a81548160ff0219169083151502179055507fec2c761738d3a5159369f4bc071d9be098279f14ff81703f70532ff18578bbaf81604051610a599190611d84565b60405180910390a150565b6000600260003373ffffffffffffffffffffffffffffffffffffffff1673ffffffffffffffffffffffffffffffffffffffff16815260200190815260200160002054905060008111610aeb576040517f08c379a0000000000000000000000000000000000000000000000000000000008152600401610ae290611df2565b60405180910390fd5b6000600260003373ffffffffffffffffffffffffffffffffffffffff1673ffffffffffffffffffffffffffffffffffffffff1681526020019081526020016000208190555060003373ffffffffffffffffffffffffffffffffffffffff1682604051610b5690611e43565b60006040518083038185875af1925050503d8060008114610b93576040519150601f19603f3d011682016040523d82523d6000602084013e610b98565b606091505b5050905080610bdc576040517f08c379a0000000000000000000000000000000000000000000000000000000008152600401610bd390611ea4565b60405180910390fd5b3373ffffffffffffffffffffffffffffffffffffffff167f84511ecc081974f18e7f3e0dcc19db078b55bbd3852ddd0dd85b3aebb7bf94c283604051610c22919061162b565b60405180910390a25050565b60003411610c71576040517f08c379a0000000000000000000000000000000000000000000000000000000008152600401610c6890611f36565b60405180910390fd5b6000600183604051610c83919061187b565b9081526020016040518091039020604051806080016040529081600082018054610cac906118c1565b80601f0160208091040260200160405190810160405280929190818152602001828054610cd8906118c1565b8015610d255780601f10610cfa57610100808354040283529160200191610d25565b820191906000526020600020905b815481529060010190602001808311610d0857829003601f168201915b505050505081526020016001820160009054906101000a900473ffffffffffffffffffffffffffffffffffffffff1673ffffffffffffffffffffffffffffffffffffffff1673ffffffffffffffffffffffffffffffffffffffff168152602001600282015481526020016003820160009054906101000a900460ff1615151515815250509050600073ffffffffffffffffffffffffffffffffffffffff16816020015173ffffffffffffffffffffffffffffffffffffffff1603610e1e576040517f08c379a0000000000000000000000000000000000000000000000000000000008152600401610e159061193e565b60405180910390fd5b8060600151610e62576040517f08c379a0000000000000000000000000000000000000000000000000000000008152600401610e5990611fa2565b60405180910390fd5b60006064826040015134610e769190611ff1565b610e809190612062565b905060008134610e909190612093565b90508060026000856020015173ffffffffffffffffffffffffffffffffffffffff1673ffffffffffffffffffffffffffffffffffffffff1681526020019081526020016000206000828254610ee591906120c7565b925050819055508160036000828254610efe91906120c7565b925050819055503373ffffffffffffffffffffffffffffffffffffffff167fe0ddda97740a0a5097653c0f5c2ce58d6799a89e7ddd98d2055342fa2e92f0e0868634858742604051610f55969594939291906120fb565b60405180910390a25050505050565b60035481565b60008054906101000a900473ffffffffffffffffffffffffffffffffffffffff1673ffffffffffffffffffffffffffffffffffffffff163373ffffffffffffffffffffffffffffffffffffffff1614610ff8576040517f08c379a0000000000000000000000000000000000000000000000000000000008152600401610fef906119d0565b60405180910390fd5b606481111561103c576040517f08c379a000000000000000000000000000000000000000000000000000000000815260040161103390611a3c565b60405180910390fd5b600073ffffffffffffffffffffffffffffffffffffffff16600184604051611064919061187b565b908152602001604051809103902060010160009054906101000a900473ffffffffffffffffffffffffffffffffffffffff1673ffffffffffffffffffffffffffffffffffffffff16036110ec576040517f08c379a00000000000000000000000000000000000000000000000000000000081526004016110e39061193e565b60405180910390fd5b60006001846040516110fe919061187b565b90815260200160405180910390209050828160010160006101000a81548173ffffffffffffffffffffffffffffffffffffffff021916908373ffffffffffffffffffffffffffffffffffffffff1602179055508181600201819055507f0e50d6ad93ab039b41a5a7af08295027fc46f63c9eb65aa7c1657ba54cda180c84848460405161118d93929190611d46565b60405180910390a150505050565b60008054906101000a900473ffffffffffffffffffffffffffffffffffffffff1673ffffffffffffffffffffffffffffffffffffffff163373ffffffffffffffffffffffffffffffffffffffff1614611229576040517f08c379a0000000000000000000000000000000000000000000000000000000008152600401611220906119d0565b60405180910390fd5b6000600354905060008111611273576040517f08c379a000000000000000000000000000000000000000000000000000000000815260040161126a906121b6565b60405180910390fd5b600060038190555060008060009054906101000a900473ffffffffffffffffffffffffffffffffffffffff1673ffffffffffffffffffffffffffffffffffffffff16826040516112c290611e43565b60006040518083038185875af1925050503d80600081146112ff576040519150601f19603f3d011682016040523d82523d6000602084013e611304565b606091505b5050905080611348576040517f08c379a000000000000000000000000000000000000000000000000000000000815260040161133f90611ea4565b60405180910390fd5b7f9870c8023baa016ac002ddfa7cdad341155acddddee3032c07d4baa4947ae64382604051611377919061162b565b60405180910390a15050565b6000604051905090565b600080fd5b600080fd5b600080fd5b600080fd5b6000601f19601f8301169050919050565b7f4e487b7100000000000000000000000000000000000000000000000000000000600052604160045260246000fd5b6113ea826113a1565b810181811067ffffffffffffffff82111715611409576114086113b2565b5b80604052505050565b600061141c611383565b905061142882826113e1565b919050565b600067ffffffffffffffff821115611448576114476113b2565b5b611451826113a1565b9050602081019050919050565b82818337600083830152505050565b600061148061147b8461142d565b611412565b90508281526020810184848401111561149c5761149b61139c565b5b6114a784828561145e565b509392505050565b600082601f8301126114c4576114c3611397565b5b81356114d484826020860161146d565b91505092915050565b6000602082840312156114f3576114f261138d565b5b600082013567ffffffffffffffff81111561151157611510611392565b5b61151d848285016114af565b91505092915050565b600073ffffffffffffffffffffffffffffffffffffffff82169050919050565b600061155182611526565b9050919050565b61156181611546565b82525050565b6000819050919050565b61157a81611567565b82525050565b60008115159050919050565b61159581611580565b82525050565b60006060820190506115b06000830186611558565b6115bd6020830185611571565b6115ca604083018461158c565b949350505050565b6115db81611546565b81146115e657600080fd5b50565b6000813590506115f8816115d2565b92915050565b6000602082840312156116145761161361138d565b5b6000611622848285016115e9565b91505092915050565b60006020820190506116406000830184611571565b92915050565b600081519050919050565b600082825260208201905092915050565b60005b83811015611680578082015181840152602081019050611665565b60008484015250505050565b600061169782611646565b6116a18185611651565b93506116b1818560208601611662565b6116ba816113a1565b840191505092915050565b600060808201905081810360008301526116df818761168c565b90506116ee6020830186611558565b6116fb6040830185611571565b611708606083018461158c565b95945050505050565b61171a81611567565b811461172557600080fd5b50565b60008135905061173781611711565b92915050565b6000806000606084860312156117565761175561138d565b5b600084013567ffffffffffffffff81111561177457611773611392565b5b611780868287016114af565b9350506020611791868287016115e9565b92505060406117a286828701611728565b9150509250925092565b60006020820190506117c16000830184611558565b92915050565b600080604083850312156117de576117dd61138d565b5b600083013567ffffffffffffffff8111156117fc576117fb611392565b5b611808858286016114af565b925050602083013567ffffffffffffffff81111561182957611828611392565b5b611835858286016114af565b9150509250929050565b600081905092915050565b600061185582611646565b61185f818561183f565b935061186f818560208601611662565b80840191505092915050565b6000611887828461184a565b915081905092915050565b7f4e487b7100000000000000000000000000000000000000000000000000000000600052602260045260246000fd5b600060028204905060018216806118d957607f821691505b6020821081036118ec576118eb611892565b5b50919050565b7f5365727669636520646f6573206e6f7420657869737400000000000000000000600082015250565b6000611928601683611651565b9150611933826118f2565b602082019050919050565b600060208201905081810360008301526119578161191b565b9050919050565b7f4f6e6c79206f776e65722063616e2063616c6c20746869732066756e6374696f60008201527f6e00000000000000000000000000000000000000000000000000000000000000602082015250565b60006119ba602183611651565b91506119c58261195e565b604082019050919050565b600060208201905081810360008301526119e9816119ad565b9050919050565b7f4665652070657263656e746167652063616e6e6f742065786365656420313030600082015250565b6000611a26602083611651565b9150611a31826119f0565b602082019050919050565b60006020820190508181036000830152611a5581611a19565b9050919050565b7f5365727669636520494420616c72656164792065786973747300000000000000600082015250565b6000611a92601983611651565b9150611a9d82611a5c565b602082019050919050565b60006020820190508181036000830152611ac181611a85565b9050919050565b60008190508160005260206000209050919050565b60006020601f8301049050919050565b600082821b905092915050565b600060088302611b2a7fffffffffffffffffffffffffffffffffffffffffffffffffffffffffffffffff82611aed565b611b348683611aed565b95508019841693508086168417925050509392505050565b6000819050919050565b6000611b71611b6c611b6784611567565b611b4c565b611567565b9050919050565b6000819050919050565b611b8b83611b56565b611b9f611b9782611b78565b848454611afa565b825550505050565b600090565b611bb4611ba7565b611bbf818484611b82565b505050565b5b81811015611be357611bd8600082611bac565b600181019050611bc5565b5050565b601f821115611c2857611bf981611ac8565b611c0284611add565b81016020851015611c11578190505b611c25611c1d85611add565b830182611bc4565b50505b505050565b600082821c905092915050565b6000611c4b60001984600802611c2d565b1980831691505092915050565b6000611c648383611c3a565b9150826002028217905092915050565b611c7d82611646565b67ffffffffffffffff811115611c9657611c956113b2565b5b611ca082546118c1565b611cab828285611be7565b600060209050601f831160018114611cde5760008415611ccc578287015190505b611cd68582611c58565b865550611d3e565b601f198416611cec86611ac8565b60005b82811015611d1457848901518255600182019150602085019450602081019050611cef565b86831015611d315784890151611d2d601f891682611c3a565b8355505b6001600288020188555050505b505050505050565b60006060820190508181036000830152611d60818661168c565b9050611d6f6020830185611558565b611d7c6040830184611571565b949350505050565b60006020820190508181036000830152611d9e818461168c565b905092915050565b7f4e6f206561726e696e677320746f207769746864726177000000000000000000600082015250565b6000611ddc601783611651565b9150611de782611da6565b602082019050919050565b60006020820190508181036000830152611e0b81611dcf565b9050919050565b600081905092915050565b50565b6000611e2d600083611e12565b9150611e3882611e1d565b600082019050919050565b6000611e4e82611e20565b9150819050919050565b7f5769746864726177616c206661696c6564000000000000000000000000000000600082015250565b6000611e8e601183611651565b9150611e9982611e58565b602082019050919050565b60006020820190508181036000830152611ebd81611e81565b9050919050565b7f5061796d656e7420616d6f756e74206d7573742062652067726561746572207460008201527f68616e2030000000000000000000000000000000000000000000000000000000602082015250565b6000611f20602583611651565b9150611f2b82611ec4565b604082019050919050565b60006020820190508181036000830152611f4f81611f13565b9050919050565b7f53657276696365206973206e6f74206163746976650000000000000000000000600082015250565b6000611f8c601583611651565b9150611f9782611f56565b602082019050919050565b60006020820190508181036000830152611fbb81611f7f565b9050919050565b7f4e487b7100000000000000000000000000000000000000000000000000000000600052601160045260246000fd5b6000611ffc82611567565b915061200783611567565b925082820261201581611567565b9150828204841483151761202c5761202b611fc2565b5b5092915050565b7f4e487b7100000000000000000000000000000000000000000000000000000000600052601260045260246000fd5b600061206d82611567565b915061207883611567565b92508261208857612087612033565b5b828204905092915050565b600061209e82611567565b91506120a983611567565b92508282039050818111156120c1576120c0611fc2565b5b92915050565b60006120d282611567565b91506120dd83611567565b92508282019050808211156120f5576120f4611fc2565b5b92915050565b600060c0820190508181036000830152612115818961168c565b90508181036020830152612129818861168c565b90506121386040830187611571565b6121456060830186611571565b6121526080830185611571565b61215f60a0830184611571565b979650505050505050565b7f4e6f20706c6174666f726d206665657320746f20776974686472617700000000600082015250565b60006121a0601c83611651565b91506121ab8261216a565b602082019050919050565b600060208201905081810360008301526121cf81612193565b905091905056fea2646970667358221220a0c1db6496e6304d9af15eef54ba3a9c8000b8775a7b05d7b3b16581d4ea209b64736f6c63430008110033",
  "linkReferences": {},
  "deployedLinkReferences": {}
}